:020000040800F2
:10000000D8100020AD0100081B200008B11F000817
:1000100019200008B1110008712300080000000039
:100020000000000000000000000000001F20000889
:10003000B3110008000000001D2000082120000866
:10004000C7010008C7010008C7010008C701000870
:10005000C7010008C7010008C7010008C701000860
:10006000C7010008C7010008C7010008C701000850
:10007000C7010008C7010008C7010008C701000840
:10008000C7010008C7010008C70100080000000000
:10009000000000000000000000000000C701000890
:1000A000C7010008C7010008C7010008C701000810
:1000B000C7010008C7010008C7010008C701000800
:1000C000C7010008C7010008C7010008C7010008F0
:1000D000C701000865230008C701000800000000F0
:1000E000C7010008C7010008C701000800000000A0
:1000F000000000000000000000000000C701000830
:1001000000000000C7010008C7010008C70100087F
:1001100000000000000000000000000000000000DF
:10012000C7010008C7010008C7010008C70100088F
:10013000C7010008000000000000000000000000EF
:10014000000000000000000000000000C7010008DF
:10015000C7010008C7010008C7010008C70100085F
:10016000C7010008C70100080000000000000000EF
:10017000000000000000000000000000000000007F
:1001800000000000C701000800000000000000009F
:10019000C7010008C7010008DFF80CD000F0A2FC7E
:1001A000004800473D450008D81000200648804719
:1001B00006480047FEE7FEE7FEE7FEE7FEE7FEE74C
:1001C000FEE7FEE7FEE7FEE7B5200008990100081C
:1001D0002DE9F05F0546002092469B46884606467C
:1001E000814640241BE0284641464746224600F00F
:1001F00055FA53465A46C01A914110D31146184633
:10020000224600F03CFA2D1A67EB01084F462246C1
:100210000120002100F033FA17EB00094E41201EA7
:10022000A4F10104DFDC484631462A464346BDE8D6
:10023000F09F40EA01039B0703D009E008C9121FA1
:1002400008C0042AFAD203E011F8013B00F8013B90
:10025000521EF9D27047D2B201E000F8012B491EBC
:10026000FBD270470022F6E710B513460A46044653
:100270001946FFF7F0FF204610BD30B504460020B8
:10028000034600E05B1C934203D2E05CCD5C401B64
:10029000F8D030BD0FB400B58DB010A909900B9007
:1002A00000914FF0FF300A9000200C900548069016
:1002B000054807906A4609A80F9900F005FA0DB0A5
:1002C0005DF814FBE5060008030700082DE9FF4F61
:1002D000087883B09946FF2805D0491C2D2804D002
:1002E0000024002008E000200BE00124F9E700EBE7
:1002F000800003EB4000491C0B78FF2BF7D104B1C1
:10030000404200230293147819461D462D2C01D03B
:100310002B2C04D1521C2D2C13D000240294AA465D
:100320001478FF2C0FD00A25A3FB057801FB05816B
:100330004FF0000C03FB0C11521CE3194AEB0101B6
:10034000EEE70124EAE7814453EA010002D019F5FF
:10035000C87F06DA03980021C0E9001107B0BDE8A4
:10036000F08F0025AE4E2F46DFF8B882184600F019
:1003700061FBCDE90001B9F1000002DAC9F1000426
:1003800000E004460023A74A1AEB030B42EB045A91
:1003900012E0E00707D02A4633463846414600F0CF
:1003A00068FA074688462A4633461046194600F042
:1003B00060FA05460E466410002CEAD1DDE9000122
:1003C000B9F1000F5A46534606DA00F0C4FA3A462D
:1003D000434600F0C0FA05E000F04BFA3A464346C7
:1003E00000F047FA029A0AB181F00041039AC2E98B
:1003F0000001B3E72DE9FF4F1F468DB0D7E9014655
:100400004FF0FF382E2045464FF000090B90B96998
:100410006D1C0E988847396A824688470028F6D1B5
:10042000BAF1FF3F0AD024F4D064002E11DDBAF1F6
:100430002B0F08D0BAF12D0F0BD102E0404611B0BE
:100440008DE744F48064B9696D1C0E988847824634
:10045000761E6946600501D52D2000E02B208DF821
:10046000000001F1010B0DF1200809E0B9696D1CD4
:100470000E98884782460F9844F40074761E0560F3
:10048000002E02DDBAF1300FF0D00B998A453ED133
:1004900044F0800406E00F99681CA9F1010944F4B6
:1004A00000740860B9696D1C761E0E9888478246F4
:1004B0003028F0D02BE00B998A4505D1200603D4D3
:1004C00044F08004761E18E0504602F097FA08B314
:1004D0000DF11301761E44F400748B4508D2AAF185
:1004E00030000BF8010B200607D5A9F1010003E04D
:1004F000200602D409F101008146A00502D50F991A
:10050000681C0860B9696D1C0E9888478246002EE9
:10051000D1DC53E0002E51DDBAF1650F02D0BAF103
:10052000450F4BD1A00549D5B9696D1C24F4407421
:10053000761E0E9888478246002E0CDD2B2804D0AC
:10054000BAF12D0F07D144F48074B9696D1C0E986F
:1005500088478246761EE00501D52D2100E02B213B
:1005600008F8011BCDF82C8021E00DF12901761E41
:1005700044F4007488450CD2AAF1300010F0FF005A
:1005800088F8000002D10B99884509D908F10108C3
:1005900006E0E00501D5244801E042F20F708146F3
:1005A000B9696D1C0E98884782460F980560002E29
:1005B00004DD504602F022FA0028D6D1F9690E98DF
:1005C0008847FF208BF8000088F800000020069084
:1005D00007904B466A4608A906A8FFF777FEA005D4
:1005E00002D46FF001002AE714F0240F0AD0E007CC
:1005F00014D1DDE906123868031D3B600068C0E9CC
:1006000000120BE0DDE9060100F050FA0146E007B8
:1006100004D13868021D3A600068016028460EE780
:10062000000014400000F03FF1D8FFFF00F000424E
:1006300030F000400AD0C10D01F56071C0F3160022
:1006400042EA0151C20840071143704700200146A9
:10065000704730B50B46014600202022012409E0F6
:1006600021FA02F59D4205D303FA02F5491B04FA6B
:1006700002F52844151EA2F10102F1DC30BD202A4A
:1006800004DB203A00FA02F1002070479140C2F1E9
:10069000200320FA03F3194390407047202A04DB1B
:1006A000203A21FA02F00021704721FA02F3D040EB
:1006B000C2F1200291400843194670470268114474
:1006C0001378016018467047D160044951610449AC
:1006D000116200211161114600F02EBABD0600081A
:1006E0002D0B0008426842B1016811F8013B23B1AB
:1006F000521EC0E90012184670470121C160881ED1
:10070000704742685AB1C368016843B983688B4235
:1007100005D0491E521CC0E90012002070474FF05E
:10072000FF3070472DE9FE4F804681EA0300C00F7D
:100730000C46009021F0004123F00045B8EB020088
:10074000A94105D24046214690461C460B4602462A
:1007500023F00040104347D0270DC7F30A00C3F32E
:100760000A510290401A019040286BDAC3F313003B
:1007700040F4801B0098924620B10023D2EB030A7C
:1007800063EB0B0B01985946C0F140025046FFF74E
:1007900076FF06460D4650465946019A00F0B4F9D8
:1007A00010EB08006141002487EA115284EAE773E4
:1007B0001A4340D0009A62B3019A012A4FEA0752C5
:1007C00015DC001B61EB02014FF0004202EA075208
:1007D000CDE90042001C41F5801132462B4600F065
:1007E00087FB03B0BDE8F08F40462146F9E7001BC8
:1007F00061EB0201001C41F5801300185B412018D9
:10080000A2F5001747EB030140EAD570B6196D4118
:1008100011E06D084FEA360645EAC0754FEA075207
:10082000001B61EB0201001C41F5801149084FEAF1
:1008300030000019514132462B4603B0BDE8F04F5D
:1008400000F047BB0098012240000023D0EB0202D9
:1008500063EBE073009821464FEAE074B8EB0000C8
:1008600061EB0401E9E783F000435BE781F00041BD
:1008700058E72DE9FE4F81EA030404F0004421F01B
:10088000004100944FF0000B23F0004350EA0104B4
:100890005ED052EA03045BD0C3F30A54C1F30A5595
:1008A0002C44A4F2F3340194A0FB0254C1F31301CD
:1008B00041F48011C3F3130343F4801301FB02449A
:1008C00000FB034E840A970A44EA815447EA83579F
:1008D000A4FB076802958D0A05FB07854FEA932C58
:1008E00004FB0C542705029D4FEA065847EA1637C9
:1008F000B5EB08056EEB070C870E920E47EA8117E1
:1009000042EA8312A7FB0201B6EB0B0164EB000481
:100910002B0D43EA0C335E1844EB1C50DA4651466B
:10092000E7FB0201C5F313044FEA0B3343EA145308
:100930004FEA0432019C43EA0603A4F10C0402943A
:10094000009CCDE900B400F0D3FA03B0BDE8F08F0D
:1009500000200146F9E72DE9F04D81EA030404F097
:10096000004B21F0004514464FF0000A23F00041EF
:1009700050EA050220D054EA01021DD0C5F30A57FF
:100980000246C5F31303C1F31300C1F30A5640F442
:10099000801543F48013A7EB0608101BD64608F217
:1009A000FD3873EB050002D308F1010801E092184D
:1009B0005B41B8F1000F03DA00200146BDE8F08D7D
:1009C00000204FF48011064684460EE0171B73EB9F
:1009D000050705D3121B63EB050306434CEA010C24
:1009E00049084FEA300092185B4150EA0107EDD107
:1009F00052EA030012D082EA040083EA05010843A8
:100A000005D0101BAB4106D20122002306E00022D4
:100A10004FF0004302E06FF0010253101AEB0600A2
:100A20004CEB085110EB0A0041EB0B01BDE8F04D17
:100A300000F04FBA0EB540F2334202920022CDE9E7
:100A40000022134600F054FA03B000BDC1F30A526D
:100A5000C1F3130140F2FF3341F480119A4202DAEC
:100A600000200146704740F233439A42A2F23342DB
:100A700002DC5242FFF712BEFFF701BE30B5041E82
:100A800071F1000404DB4FF00044404264EB0101CB
:100A9000141E73F1000405DB1C464FF00043524264
:100AA00063EB0403994208BF904230BD01F000435C
:100AB00030B421F0004150EA010206D00A0DA2F53F
:100AC0006072C1F31301002A02DC30BC00207047C1
:100AD000440F44EAC104C100E01830BC00EBC2502E
:100AE00000F0C0B9064C074D06E0E06840F0010395
:100AF00094E8070098471034AC42F6D3FFF750FB58
:100B0000E04D0008004E0008202A06DBCB17203AF3
:100B100041FA02F043EAE07306E041FA02F3D04002
:100B2000C2F120029140084319467047C0B24FF409
:100B3000F05100F02BBA00002DE9F34F8BB04FF0CD
:100B4000000801F10C000C464FF0010B46460DF178
:100B5000080A01906269012101989047051E2DD075
:100B6000252D2CD0216A8847C0B1626901210198E6
:100B70009047216A88470028F7D1411E6269019891
:100B8000904700E0761CA1690B988847216A884746
:100B90000028F7D1E1690B988847DBE7A1690B983A
:100BA00088470746A84201D1761CD3E7E1690B9834
:100BB00088477F1C02D1B8F1000F6FD046E10027B3
:100BC00062693D463946019890472A2804D16269F6
:100BD0000121019890470125DFF884926269012183
:100BE00001989047A0F130010A290AD24F45E5DC6F
:100BF00007EB870100EB4107303FDFD445F01005DC
:100C0000ECE7E90601D46FF000476C280AD04C28C5
:100C100014D0682815D06A280DD074281CD07A28E2
:100C20001AD01DE062690121019890476C2802D01A
:100C300045F0040514E045F002050DE045F02005FF
:100C40000AE06269012101989047682802D045F0C6
:100C5000080505E045F400656269012101989047A7
:100C6000C4E9015765283DD019DC58287AD00CDC3E
:100C7000452837D004DC252826D0412831D131E061
:100C800046282FD047282CD12CE05B2877D061282C
:100C900028D063287CD0642823D15AE0D0E06F2884
:100CA00048D008DC66281DD067281BD0692821D0D1
:100CB0006E2816D127E0702845D0732868D0752893
:100CC00047D078280DD14DE0A1690B98884705469B
:100CD00025283FF469AFE1690B9888476D1C3FF404
:100CE0006AAFB3E023466A466FF001000B99FFF745
:100CF00081FB9EE045F040006060A80723464FF06E
:100D0000000236D43EE0E8077FF447AF2068011DBB
:100D100021600068290501D506701BE7290701D568
:100D2000068017E7A90703D5F117C0E9006111E7AD
:100D300006600FE745F040006060A80723464FF0CB
:100D4000080216D41EE040F60E0125EA010060609C
:100D500016E045F040006060A80723464FF00A0205
:100D600007D40FE045F040006060A80708D523468F
:100D700010226FF001000B99AFF3008059E007E0FB
:100D8000234610226FF001000B99AFF3008050E072
:100D90004FF000094F464B46632802D05B2806D02F
:100DA00040E0E80601D40120A06001273AE0626932
:100DB0000121019890475E2805D14FF00109626931
:100DC000494601989047216939B900210A4653469E
:100DD00043F82120491C0829FADBB0B3216969B91D
:100DE000C11700EBD16253110AEB830122F01F02FD
:100DF000821A01200B68904003430B606269012155
:100E0000019890475D28E8D1B9F1000F09D0002082
:100E1000514651F82020D24341F82020401C082898
:100E2000F7DB02AB224600976FF001000B99AFF39E
:100E3000008000280CDA401C08D1BBF1000F05D05F
:100E40004FF0FF300DB0BDE8F08FFFE74046F9E707
:100E5000E90701D108F1010806444FF0000B79E6DB
:100E6000CCCCCC0C0029A8BF7047401C490008BF5F
:100E700020F00100704710B4B0FA80FC00FA0CF0CA
:100E800050EA010404BF10BC704749B1CCF1200402
:100E900021FA04F411FA0CF118BF0121214308438F
:100EA000A3EB0C01CB1D4FEA00614FEA102042BFBB
:100EB000002010BC704700EBC35010440029A4BFB1
:100EC00010BC7047401C490008BF20F0010010BC56
:100ED000704710B5141E73F1000408DA401C41F18C
:100EE000000192185B411A4301D120F0010010BDAE
:100EF0002DE9F04D92469B4611B1B1FA81F202E024
:100F0000B0FA80F220329046FFF7B9FB04460F4654
:100F100040EA0A0041EA0B0153465A46084313D0FF
:100F2000114653EA010019D0C8F140025046FFF7BC
:100F3000B5FB05460E46504659464246FFF79FFB15
:100F4000084305D0012004E020463946BDE8F08D75
:100F50000020054346EAE0762C4337430A986305B0
:100F6000E40AA0EB08000022FD0A44EA47540A30D4
:100F700002D500200146E9E7010510196941DDE9C4
:100F8000084500196941BDE8F04DA2E77F2801D965
:100F9000002208E0064A02EB5002C007127800D196
:100FA000120902F00F020120904008407047000033
:100FB000A04D000870B58C1810F8015B15F0070300
:100FC00001D110F8013B2A1106D110F8012B03E0E2
:100FD00010F8016B01F8016B5B1EF9D12B0705D4EA
:100FE0000023521E0DD401F8013BFAE710F8013B33
:100FF000CB1A921C03E013F8015B01F8015B521E4F
:10100000F9D5A142D8D3002070BD000010B51C480E
:1010100090B0016841F4805101600068002100F443
:1010200080500E90174802F003FD10F0FF0F03D020
:10103000020AC1B214A020E0684602F005FD114C7E
:1010400070B11B4A002103A802F03AFC69462068EF
:1010500002F010FD58B117A001F08CF910B010BDCE
:10106000206802F005FD020AC1B219A005E020685F
:1010700002F0FEFC020AC1B21FA001F07BF9EDE70D
:10108000303802406C07002041492043524541540A
:1010900045204641494C2120545950453A20256469
:1010A0002C20434F44453A2025640D0A00000000DF
:1010B00030080020414920494E495420414C4C20E1
:1010C00053554343455353202121210D0A0000006D
:1010D00047455420504152414D53204641494C21EF
:1010E00020545950453A2025642C20434F44453A1A
:1010F0002025640D0A000000414920494E49542032
:101100004641494C2120545950453A2025642C2011
:10111000434F44453A2025640D0A00002DE9F04173
:10112000174E0D4607460021306802F0BBFC04460E
:101130000021306802F0C0FC02464CB142B1676049
:1011400055602146306802F0C1FC0020012105E015
:101150000CA001F00FF90020BDE8F08105EB810241
:1011600092ED000A05EB8002D2ED000AB4EEE00A2F
:10117000F1EE10FA00DD0846491C0329EEDBEBE72F
:101180006C0700204572726F723A2043616E6E6F79
:101190007420676574206F6666696369616C2041BD
:1011A000492062756666657273210D0A00000000B1
:1011B000FEE7704772B6FEE72DE9F0410446876D01
:1011C00000F046F9064694F835000025022806D0BE
:1011D0008020606584F834500120BDE8F0812068EB
:1011E000016821F0160101602068416921F0800149
:1011F0004161206C08B9A06C20B12068016821F021
:10120000080101602068016821F0010101600CE023
:1012100000F01EF9801B052807D9202060650320F7
:1012200084F8350084F83450D7E720680068C00798
:10123000EED194F85C103F208840B860012084F81B
:10124000350084F834500020C7E790F835100229A3
:1012500003D08021416501207047052180F83510B9
:101260000068016821F00101016000207047000062
:101270002DE9F84FDFF8B8A10022012403254FF033
:101280000F090AF1040BAAF1040E00BF0B6804FA5F
:1012900002F63340B34273D10F7907F00307012FF1
:1012A00001D0022F16D187684FEA420805FA08FCE0
:1012B00027EA0C07D1F80CC00CFA08FC4CEA070C22
:1012C000C0F808C04768B7430E79C6F300169640C9
:1012D0003E4346600E79F643B6070DD0C768560008
:1012E00005FA06FC27EA0C07D1F808C00CFA06FC40
:1012F0004CEA070CC0F80CC00E7906F00306022E6B
:1013000010D1D60800EB8608D8F8206057074FEABE
:10131000D76C09FA0CF7BE430F6907FA0CF737438D
:10132000C8F8207006684FEA420C05FA0CF7BE4375
:101330000F7907F0030707FA0CF7374307604E6889
:1013400016F4403F6DD03B4E376847F48047376016
:10135000366822F0030706F480460096364E07EB07
:10136000060CDCF8086897073F0F09FA07F826EA29
:101370000806DFF8C880404503D14FF000081EE0A2
:101380004FE0DFF8BC80404502D14FF0010816E085
:10139000DFF8B080404502D14FF002080FE0DFF8DF
:1013A000A880404502D14FF0030808E0DFF89C8098
:1013B000404502D14FF0040801E04FF0070808FA59
:1013C00007F848EA0608CCF80888DAF800605746BB
:1013D000D1F804C09E435FEACC2C00D51E433E608A
:1013E000DBF800605F46D1F804C09E435FEA8C2CB6
:1013F00000D51E433E60DEF800607746D1F804C099
:101400009E435FEA8C3C00D51E433E60084F083F78
:101410003E68D1F804C09E435FEACC3C00D51E4331
:101420003E60521C102AFFF431AFBDE8F88F000077
:10143000083C0140443802400030014000000240B6
:101440000004024000080240000C0240001002406C
:1014500001488068704700007007002002488168DA
:101460000278114481607047700700200B4810B566
:10147000016841F400710160016841F4806101601C
:10148000016841F480710160032000F06FF80020D2
:1014900000F006F800F024F8002010BD003C0240E7
:1014A00070B50D4D04464FF47A712878B1FBF0F019
:1014B0000A490968B1FBF0F000F00AFB48B9102CAA
:1014C00007D200222146501E00F030F800206C6048
:1014D00070BD012070BD0000700700207C07002057
:1014E0000A4808B5016841F480410160006800F4D1
:1014F000804000900548001F016841F08051016064
:10150000006800F08050009008BD000044380240A0
:10151000002809DB00F01F020121914040098000F2
:1015200000F1E020C0F8001170470000F0B40E4B4D
:101530001B680C46C3F30223C3F10705042D00D931
:101540000425191D072901D2002300E0DB1E012616
:1015500006FA05F1491E214099409E40761E16402C
:101560003143F0BC00F029BF0CED00E0064900F06B
:10157000070208684FF6FF03184040EA0220034ABA
:1015800010430860704700000CED00E00000FA0511
:101590002DE9F0470E46050065D0DFF81481D8F834
:1015A0000000F7B200F00700B04207D288F80070E0
:1015B000D8F8000000F00700B04254D128683D4C34
:1015C000810712D5400703D5206840F4E050206021
:1015D0002878000703D5206840F460402060206828
:1015E000A96820F0F000084320602878C0072DD0BB
:1015F000304968680839012812D0022813D003281E
:1016000011D00968890700292DDA216821F003012A
:1016100001432160FFF71CFF814641F2883A0EE04A
:1016200009688903EFE709688901ECE7FFF710FF14
:10163000A0EB0901514502D90320BDE8F0872068DD
:10164000696800F00C00B0EB810FEFD1D8F8001002
:10165000404601F00701B14207D90770006800F069
:101660000700B04201D00120E7E72878400705D500
:101670002068E96820F4E0500843206028780007DB
:1016800006D52068296920F4604040EAC100206046
:1016900000F038F82168084AC1F30311515CC840D2
:1016A0000649086006480068FFF7FAFE0020C4E714
:1016B000003C024008380240F04C00087C07002043
:1016C000740700200448054900680968044AC1F30A
:1016D0008221515CC84070477C07002008380240D6
:1016E000004D00080448054900680968044AC1F330
:1016F0004231515CC84070477C07002008380240E6
:10170000004D0008154810B5006810F00C02144890
:1017100013D04110042A0FD0082A0ED10F4C241FD9
:101720002268236802F03F025B0207D52068C0F3FD
:101730008810A0FB010106E0084610BD2168C1F336
:101740008811A1FB00010023FEF742FD2168C1F3CF
:101750000141491C4900B0FBF1F010BD08380240BE
:101760000024F4002DE9F84F04006ED02078DFF853
:101770004C93C007A9F104054AD009F1040001689F
:10178000C1F38101012908D00068C0F3810002285B
:101790000AD1D9F80000400206D52868800337D561
:1017A00060680028E1D033E06068B0F5803F10D079
:1017B000B0F5A02F286810D020F480302860286869
:1017C00020F4802028606068A8B1FFF741FE06463B
:1017D0000DE0286840F48030F4E740F48020286071
:1017E000F7E700BFFFF734FE801B642873D8286832
:1017F0008003F7D50CE0FFF72BFE064605E000BF9F
:10180000FFF726FE801B6428F0D828688003F7D4F1
:101810002078DFF8AC8280074FF0000A3ED5A74859
:10182000001D016811F00C0F08D00068C0F38100A2
:1018300002280BD1D9F80000400207D4286880079D
:1018400016D5E068012800D112E033E1E068B8B1B4
:101850000120C8F80000FFF7FBFD064605E000BFC9
:10186000FFF7F6FD801B0228C0D828688007F7D54F
:101870002868216920F0F80040EAC10028600DE0E6
:10188000C8F800A0FFF7E4FD064604E0FFF7E0FD1E
:10189000801B02281FD828688007F7D4207800070B
:1018A00022D5864F87486169703771B10121016087
:1018B000FFF7CEFD064604E0FFF7CAFD801B0228B5
:1018C00009D838688007F7D50EE0C0F800A0FFF708
:1018D000BFFD064605E082E0FFF7BAFD801B022847
:1018E0007DD838688007F7D42078400768D5DFF8BE
:1018F000CCB100270BF13C0BDBF80000C0000BD48F
:10190000DBF8001041F08051CBF80010DBF800004C
:10191000012700F0805000906B4E3068C00510D455
:10192000306840F480703060FFF792FD009005E071
:10193000FFF78EFD0099401A022850D83068C00584
:10194000F6D55E4EA0686C3601280FD005283068A9
:1019500010D020F001003060306820F004003060CA
:10196000A068B8B1FFF774FD00900FE0306840F058
:101970000100F4E740F004003060F7E7FFF768FD8E
:101980000099411A41F28830814266D83068800758
:10199000F4D50EE0FFF75CFD009007E0FFF758FD7F
:1019A0000099411A41F28830814256D83068800748
:1019B000F4D42FB1DBF8001021F08051CBF80010E7
:1019C000A069C8B33D49091D0968C1F38101022915
:1019D0004AD00228504607D0C8F8600000E03CE03A
:1019E000FFF736FD04463BE04746C8F86000FFF7C6
:1019F0002FFD064605E000BFFFF72AFD801B0228E9
:101A00002BD828688001F7D4D4E907010843A16ADC
:101A10002E4A490802EB0141626A41EA82110843F9
:101A200094F82C1040EA0161C9F8001001203866D2
:101A3000FFF70EFD044606E03EE000BFFFF708FD9D
:101A4000001B022809D828688001F7D534E000BFC0
:101A5000FFF7FEFC001B022802D90320BDE8F88F27
:101A600028688001F4D427E00128F7D0D9F80000D5
:101A7000E26900F4800191421CD1226A00F03F012A
:101A8000914217D147F6C071626A0140B1EB821FE3
:101A900010D1A26A4FF0FF3300F4403103EB520241
:101AA000B1EB024F06D194F82C1000F07060B0EB4F
:101AB000016F01D00120D1E70020CFE704380240B8
:101AC00000004742800E4742007000400000FFFFC8
:101AD00010B5401EB0F1807F01D3012010BD4FF042
:101AE000E02460610F21601700F067FC0020A06116
:101AF00007202061002010BD70477047F8B50168CD
:101B000004460868CA684B6910F00F0F4FF00005D3
:101B100059D003F0010602F49077374365D0C1072E
:101B200005D0D10503D5616C41F001016164410725
:101B300005D5D90703D0616C41F0020161648107CA
:101B400005D5D90703D0616C41F004016164010738
:101B500007D502F02001314303D0616C41F0080148
:101B60006164616C00293AD0800604D5900602D5E4
:101B7000204600F0D5FA20684069616CC0F38010FF
:101B8000090700D460B3204600F0A3FA206840693A
:101B9000400621D52068143050E8001F21F0400194
:101BA00040E80012002AF5D1E06BA8B17249016546
:101BB000E06BFFF74AFB002811D0E06B016D01B02C
:101BC000BDE8F040084783060FD593060DD52046A3
:101BD000BDE8F84000F0A4BA2046FFF78EFFF8BD3C
:101BE0002046FFF78AFF6564F8BD266B2023012E8F
:101BF0007ED1C6067CD5D6067AD50868486800909E
:101C000048694FF0020640064DD5E26B1068406807
:101C10004FF480770004000C3AD0A18D814237D96F
:101C2000E085D069B8422DD020680C3050E8001F04
:101C300021F4807140E80012002AF5D120681430A8
:101C400050E8001F21F0010140E80012002AF5D100
:101C50002068143050E8001F21F0400140E80012D5
:101C6000002AF5D184F84230256320680C3050E812
:101C7000001F21F0100140E80012002AF5D1E06BAE
:101C8000FFF79AFA6663A08DE18D401A81B206E0F3
:101C9000A18D8142A8D1D069B842A5D16663204602
:101CA000FFF72AFFF8BDA08DE18D401A81B2E08DCB
:101CB0000028F7D00029F5D020680C3050E8002F1C
:101CC00022F4907240E80027002FF5D120681430EC
:101CD00050E8002F22F0010240E80027002FF5D144
:101CE00084F84230256320680C3050E8002F00E073
:101CF00006E022F0100240E80023002BF3D1CDE7EC
:101D000005062BD5150629D594F841002128C9D1FF
:101D1000A068B0F5805F01D12069B0B1206A411C94
:101D20002162216800784860E08C401E0004000CAD
:101D3000E084B7D12068C16821F08001C1602068CB
:101D4000C16841F04001C160F8BD206A0088C0F35D
:101D500008004860206A801C2062E5E74006F3D551
:101D60005006F1D5CA68204622F04002CA6084F8C5
:101D7000413000F01CF9F8BDC520000870B5040022
:101D800004D094F84100002510B106E0012070BD98
:101D900084F84050204600F023F8242084F84100C5
:101DA0002068C16821F40051C160204600F01AFA91
:101DB0002068016921F4904101612068416921F0A6
:101DC0002A0141612068C16841F40051C160656425
:101DD000202084F8410084F842006563002070BD33
:101DE00010B586B0044614216846FEF73BFA184940
:101DF0002068884229D117480021026842F0100269
:101E00000260006800F01000059012481438026863
:101E100042F001020260006800F0010005904FF4FA
:101E2000C06000900220CDE901010320039007204B
:101E3000049069460848FFF71BFA00221146252046
:101E4000FFF774FB2520FFF763FB06B010BD000011
:101E50000010014044380240000002402DE9F84FD4
:101E6000044690F842009A4616460D46202802D0B5
:101E70000220BDE8F88FB5B1AEB100206064222128
:101E800084F842102063FFF7E3FAA6858146E685D1
:101E9000A0684FF480582027404501D1206920B127
:101EA0002E46002529E00120E3E7002625E04B46E9
:101EB000002220212046CDF800A000F019FA18B128
:101EC00084F842700320D4E726B1A06840451AD0B8
:101ED00038B108E020684068C0F3080025F8020B1C
:101EE00008E0206978B12068406800F07F0000BFFA
:101EF00006F8010BE08D401EE085E08D0028D6D16C
:101F000084F84270B5E720684068F1E770472DE932
:101F1000F843044690F84100984616460D4620289E
:101F200002D00220BDE8F88385B17EB10020606454
:101F3000212084F84100FFF78BFAA6848146E684CD
:101F4000A0682027B0F5805F02D003E00120E9E718
:101F5000206910B12E4600250EE000260CE08021FD
:101F6000204600F0C5F9A8B9C6B116F8010B2168E2
:101F70004860E08C401EE084E08C4B464FF000024D
:101F8000CDF800800028EAD14FF04001204600F053
:101F9000AFF940B184F841700320C3E735F8020B74
:101FA000C0F30800E3E784F841700020BAE7704707
:101FB000FEE70000094808B5016841F080010160B2
:101FC000016801F080010091016841F001010160A8
:101FD000006800F00100009008BD000030380240A9
:101FE0000C4810B50A4901604FF4E131416000210D
:101FF00081600C22C160C0E904128161C161FFF7F8
:10200000BDFE002803D0BDE81040FFF7D3B810BDD7
:102010000010014090080020FEE7FEE7704770477F
:10202000FFF71CBA30B593B030216846FEF71AF9B5
:1020300014210CA8FEF716F91C480025016841F090
:1020400080510160006800F08050119018480168CC
:1020500041F4404101600068022400F440401190C6
:1020600001200090000401908001CDE9064008AAFB
:102070000420642182E813000B906846FFF772FB8E
:1020800008B172B6FEE70CA90F2081E831004FF4C9
:102090008050CDE90F0503210CA8FFF779FA00283D
:1020A00001D072B6FEE713B030BD000040380240E8
:1020B000007000400248016841F4700101607047FF
:1020C00088ED00E010B5806B0021C185FFF715FD9C
:1020D00010BD01680C3151E8002F22F4907241E8E4
:1020E0000023002BF5D10168143151E8002F22F0B4
:1020F000010241E80023002BF5D1016B012909D130
:1021000001680C3151E8002F22F0100241E8002351
:10211000002BF5D1202180F8421000210163704787
:1021200008B590F84210222901D0022008BD82682B
:102130004FF480539A4201D1016921B1816A9A42D8
:102140001BD04AB10AE00268816A5268C2F30802F1
:102150000A80816A891C08E0026972B102685268CB
:1021600002F07F020A70816A491C8162C18D491E9A
:102170000904090CC18503D01BE002685268F1E72D
:102180000168CA6822F02002CA600168CA6822F4A5
:102190008072CA6001684A6922F001024A61202106
:1021A00080F8421000214163026B012A03D0FFF73F
:1021B000ADFE002008BD016301680C3151E8002F1D
:1021C00022F0100241E80023002BF5D101680A68D3
:1021D000D20602D50A6849680091818DFFF78CFC10
:1021E000E7E7000070B5044600680169E26821F481
:1021F0004051114301612169A068E26908436169A6
:10220000114308432168CA6849F20C639A430243A8
:10221000CA6020684169A26921F44071114341619B
:1022200031492068884202D03049884202D1FFF704
:1022300059FA01E0FFF746FAE26900231921642503
:102240003226B2F5004F626828D0A0FB0101930F3F
:102250009200FDF7BDFF0146B0FBF5F06FF01802EC
:10226000504301EB800006EB0010B0FBF5F000F0EE
:10227000F002B1FBF5F002EB0012B1FBF5F06FF0EC
:102280001803584301EB800006EB0010B0FBF5F09B
:1022900000F00F0021681044886070BDA0FB0101B0
:1022A00092185B41FDF794FF0146B0FBF5F0020187
:1022B000B1FBF5F06FF01803584301EB800006EB1B
:1022C000C000B0FBF5F000F0F80002EB4002B1FBFB
:1022D000F5F0584301EB800006EBC000B0FBF5F0D1
:1022E00000F00700D6E70000001001400014014094
:1022F0002DE9F843984617460D460446089E24E00B
:10230000701C22D0FFF7A4F8A0EB0800B0421AD846
:10231000CEB12068C168490717D5802D15D0402D52
:1023200013D00168C94309070FD40168002540682C
:1023300000902046FFF7CDFE0820606484F84050EE
:102340000120BDE8F8830320FBE72068006835EA38
:10235000000004D00020B842D2D00020F1E70120D4
:10236000F9E700000148FFF7C9BB00009008002012
:10237000FEE700000FB4054B10B503A9044A02980C
:1023800000F062FE10BC5DF814FB0000FD44000884
:10239000800700204100080218BF04200A0E18BF61
:1023A00040F001004FF07F4232EA010108BF40F0E7
:1023B0000200012808BF052070470907090E002800
:1023C00004DB00F1E02080F80014704700F00F00FB
:1023D00000F1E02080F8141D704700009FED4B0ACB
:1023E00063E000BFD2ED003A91ED004A92ED013A70
:1023F00091ED011A04EE230AD2ED021A91ED022AA0
:10240000D2ED032AD1ED030A92ED044A01EE030A4C
:10241000D1ED043A91ED053A92ED071A02EE210A48
:1024200092ED052AD1ED061A00EEA20AD2ED062A97
:10243000D1ED070A03EE840A92ED084AD1ED083A7D
:1024400003EE020A92ED093A92ED0A2A01EEA20A7F
:10245000D1ED092AD1ED0A1A00EE810A92ED0B1A8C
:10246000D1ED0B0A03EE840AD2ED0C3A91ED0C4A41
:1024700002EE830AD2ED0D2A91ED0D3A01EE820AA9
:1024800092ED0E2AD1ED0F1A00EE810AD1ED0E0A5F
:1024900092ED0F1A40314032103B04EE230A03EE56
:1024A000220A00EE820A01EE810A102B9AD21AE06B
:1024B000D1ED000A92ED001A00EE810AD1ED010A79
:1024C00092ED011A00EE810AD1ED020A92ED021A94
:1024D00000EE810AD1ED030A92ED031A1031103299
:1024E0001B1F00EE810A042BE2D206E0F1EC010A88
:1024F0005B1EB2EC011A00EE810A002BF6D1D0ED82
:10250000000A30EE800A80ED000A704700000000EB
:1025100010B510EE104A4FF019406849002200EB48
:1025200044002DED028B884257D8DFED650A14F088
:10253000004F60EE200A14BFBEEE001AB6EE001A7D
:1025400071EE200AFDEEE00A10EE900A00EE900A0D
:10255000F8EEE00A9FED5B1A00EEC10A9FED5A1AF1
:1025600000EEC10ADFED590A9FED591A00EE201A5C
:10257000DFED580A40EE010A9FED571A574B00F065
:10258000030100EE201A21EE000A7B4403EB8103D5
:10259000D3ED000A524B7B4403EB810393ED001A09
:1025A000504B41EE000A7B4403EB8101801091ED1A
:1025B000000A70EE800AEABB00EE100AB8EEC01AFC
:1025C000DFED491A9FED490ABDEC028B01EE210AAD
:1025D000BCEEC00A20EE200A10BD4FF0FF40A04321
:1025E0001BD04FF0CE40B0EB440F82BFB7EE000AD5
:1025F000BDEC028B10BD3E48B0EB440F28BF01225A
:1026000093D2022000F09CF814F0004F15D0BDECDE
:10261000028BBDE8104000F07BB814F5000F02BF3C
:102620009FED340ABDEC028B10BDBDEC028BBDE802
:10263000104000E007E000F05FB8BDEC028BBDE8A1
:10264000104000F05DB800EBD07359104FF07E528F
:1026500002EBC15100EE101AA0EB630002EBC05078
:1026600060EE200A00EE100A20EE208A18EE100A12
:1026700088B118EE100AB0F1FF4F15D018EE100A0D
:10268000FFF788FE042808BF00F042F8B0EE480AC1
:10269000BDEC028B10BD022000F052F8BDEC028BA5
:1026A000BDE8104000F034B8022000F049F8BDEC5D
:1026B000028BBDE8104000F023B800000000501E5F
:1026C0003BAAB8400070313EF4FD053712BB2A3DED
:1026D00012BB2A3EFFFFFF3EFFFF7F3FF2270000B5
:1026E000F6270000C62700000000004B00007E4EC9
:1026F0000000A0850000000030EE000A70470000D6
:102700009FED020A20EE000A7047000000000070F2
:102710009FED020A20EE000A704700000000001042
:1027200002E008C8121F08C1002AFAD1704770479A
:10273000002001E001C1121F002AFBD170470000F8
:1027400001490860704700008407002010B5416906
:10275000044688472069A04200D1002010BD000037
:102760002DE9F04F002699B00F4605463446B04695
:102770004CE0A868C4EBC4038946426802EB8302BC
:102780000E92806810AA00EBC40A2C480D9251F8F2
:10279000082F006A120A62F31F200190D1F804B0DA
:1027A0001C2105A8FDF75EFDD9F81800006800F0AF
:1027B000F1FF0590D9F81800806806905FEA0A00DA
:1027C00009D0C0F80080D9F80010416029B14988CB
:1027D00019B1012102E0404603E00021016001B986
:1027E00000200790D9F818001C2205A9406809901C
:1027F0000198CDE90A0B0D98FDF71BFD1C2210A9CD
:102800000E98FDF716FD761CB6B2641C0DB1288833
:1028100000E00020A04205D9686818B150F82410E3
:102820000029A6D11EB1A8684068386001E0C7F849
:10283000008019B03046BDE8F08F0000084D000858
:10284000D3ED000A9FED0B1A01EB820300EB82002F
:10285000001F1B1F8B420BD393ED000AB4EEE00A5E
:10286000F1EE10FA01D8B0EE410A80ED000AEFE770
:1028700070470000000000002DE9FF5F82B00021DA
:10288000DDE90430020DDDF840B0034318D044F612
:102890001050A2F2FF3242431514119801281FD0A4
:1028A000A5EB0B00401C5FEA000A4FF000064E4FFC
:1028B000DFF83891B046504615D5CAF1000413E050
:1028C000119801244AA3012801D16FEA0B01029853
:1028D000119AC0E90031C0E9024206B0BDE8F09F9C
:1028E000CBF10000DFE704460021404A491842EBE3
:1028F0000450CDE9001012E0E00707D032463B4615
:1029000040464946FDF7B5FF8046894632463B467C
:1029100010461946FDF7ADFF06460F466410002C21
:10292000EAD1DDE90401DDE90023BAF1000F06DA9E
:10293000FDF79FFF42464B46FDF79BFF05E0FEF784
:102940000AF842464B46FEF706F804460E460022B9
:10295000284BFEF793F803D84FF0FF30014607E00D
:102960000022254B20463146FDF7DCFEFEF76EF8CF
:10297000102409E0002C0ADB0A220023FDF728FCC2
:10298000039B30321A55641E50EA0102F2D1641CD6
:10299000039AC4F111031444119A012A03D00122AD
:1029A00008430DD10AE0084304D000204FF0110B7A
:1029B000119072E7A3EB0B056D1E0DE05B4504DD86
:1029C0004FF0000205F1010504E003DA4FF00002C8
:1029D000A5F10105002AECD002981199C0E9023155
:1029E000C0E9004579E70000000014400000F03F16
:1029F000300000000000F0430000E03F30380A28BB
:102A000001D201207047002070470000F0B5054654
:102A1000059C24F0010003EB80069FED460AE708C1
:102A200056E001C9D3ED002AC0F3031C02EB8C0C65
:102A30009CED002A00F00F0C02EB8C0C02EE220A37
:102A4000DCED001A93ED012AC0F3072C4FEA1C1CA1
:102A500002EB8C0C01EE820A9CED001AD3ED021AF7
:102A6000C0F3032C02EB8C0CD3ED042A01EE210AF7
:102A7000DCED000A93ED031AC0F3074C4FEA1C1C6F
:102A800002EB8C0C00EE810A9CED002AC0F3034C93
:102A900002EB8C0CDCED001A02EE220A93ED052A03
:102AA0004FEA107C02EB8C0CC0F303609CED001A23
:102AB00001EE820AD3ED061A02EB8000D0ED000A87
:102AC00001EE210A93ED071A20337F1E00EE810AE2
:102AD000002FA6D116E000BF11F8010B93ED001AEC
:102AE000070902EB870700F00F00D7ED000A02EBA1
:102AF000800000EE810AD0ED000A93ED011A083340
:102B000000EE810AB342E7D3E0070AD011F8010BC7
:102B100093ED001A000902EB8000D0ED000A00EEF0
:102B2000810AD5ED000A084630EE800A85ED000ADC
:102B3000F0BD000000000000F0B50446059D9FEDCB
:102B4000370AE8084FE040C9D3ED002AF7B202EB9C
:102B50008707401E97ED002AC6F3072702EB870779
:102B600002EE220AD7ED001A93ED012AC6F30747B9
:102B700002EB8707360E01EE820A97ED001AD3EDBD
:102B8000021A02EB8606D3ED042AD6ED000A01EE06
:102B9000210A93ED031A40C9F7B200EE810A02EB55
:102BA000870797ED002AC6F3072702EB870702EE97
:102BB000220AD7ED001A93ED052AC6F3074702EB68
:102BC0008707360E01EE820A97ED001AD3ED061A3A
:102BD00002EB8606D6ED000A01EE210A93ED071AF4
:102BE000203300EE810A0028ADD105F007000AE08D
:102BF00011F8015B401E02EB8505B3EC011AD5ED1F
:102C0000000A00EE810A0028F2D1D4ED000A08463D
:102C100030EE800A84ED000AF0BD000000000000E4
:102C200070B505460C4648886988884202D9AAB121
:102C3000002070BD92B100260CE000BF6168C6EBB9
:102C4000C6006A6801EB800102EB80001C22FDF7E0
:102C5000F0FA761C6088B042F0D801E060686860E5
:102C60006088688020882880012070BD30B500B35E
:102C7000F9B1F2B15268E2B10F4C1368A34203D02C
:102C80000260012913D014E00023121D07E000BFE9
:102C900052F82350A54204D040F823505B1C8B42CD
:102CA000F6D38B4205D152F82300A04201D1012076
:102CB00030BD002030BD0000DECAFAA170B50D465F
:102CC000060014461AD0CCB1104600F00BFE00B13D
:102CD0006088A84212D10023042109E0C3EBC3029B
:102CE000606801EB8202805820B146F823005B1C2B
:102CF000AB42F3D3AB4201D1012070BD002070BDC7
:102D00000349884201D1012070470020704700002C
:102D1000DECAFAA12DE9FE4F92468946040003D08F
:102D2000208E20B1656B03E00020BDE8FE8F0025FA
:102D3000002060832083207CC043800702D03022A3
:102D40001121DCE0B9F1000F61D0D5B32888C0B300
:102D5000D9F818000026D0F8008056E0A86800686E
:102D600000EB0610019052D058B3C6EBC60002909B
:102D700009EB80000121009000F0BEFDDBF8183067
:102D8000596888421AD80098DBF80C208069D76807
:102D9000D0F80CC0674511D19768D0F808C06745D6
:102DA0000CD152684068824208D1186800F0E3FCF8
:102DB0000746584601F0AEFB874203D21822122183
:102DC0009DE024E0DBF81800006800F0E3FC0299C5
:102DD00020F07E4259F8210020F07E40824201D04E
:102DE0001922ECE70098406888B100988069006873
:102DF00078B14146404500D208468046DDE90010E2
:102E00005A4600F08FF8761C2DB1288804E017226E
:102E1000D5E72122D3E70020B04206D9686820B167
:102E200050F826B0BBF1000F98D1BAF1000F74D062
:102E3000208E012806D9656B0C3503D0288808B18F
:102E4000002658E0182259E0A868006800EB061B2D
:102E50003BD0BBF1000F38D0C6EBC60001900AEBA7
:102E600080000121009000F047FDD9F81830596822
:102E70008842E7D80098D9F80C208069D768D0F844
:102E80000CC06745DED19768D0F808C06745D9D136
:102E9000526840688242D5D1186800F06CFC074641
:102EA000484601F037FB8742CCD3D9F818000068B8
:102EB00000F070FC20F07E4201985AF8200020F0CB
:102EC0007E40824203D0192218E0172216E00098B3
:102ED00040680028F9D000988069006868B14146D0
:102EE000404500D2084680464A465846009900F0C0
:102EF00019F8761C3DB1288806E0212213212046CE
:102F000000F08CFF10E70020B04206D9686820B1BD
:102F100050F82690B9F1000F96D1A4F818804FF020
:102F2000010002E770B504460E461546104601F052
:102F3000F1FA0146A060B06900684843E06071683A
:102F40006160726810442060A8690268920007D42A
:102F5000D0E90223D21A11448160A9696068C8606F
:102F600070BD70B50646002521E0B068006800EB32
:102F7000051488690268920005D58168A2686068B6
:102F800001F030FC08E0D0E90223D21A63681A4449
:102F9000826089696068C860D4E9010108446060A2
:102FA0002168884201D3E068081A6D1C60600EB188
:102FB000308800E00020A84206D97068002803D0BD
:102FC00050F825100029D0D170BD2DE9F0410646FA
:102FD000002529E0B1688369096801EB05141968C7
:102FE0008900D4E901120DD5986801F0FBFBD4E902
:102FF0000101084460602168884201D3E068081A32
:10300000606010E00A44626021688A4201D3E2688D
:103010008A1A62608169D1E90237DB1B1A448A602F
:1030200080696168C1606D1C0EB1308800E00020CD
:10303000A84206D97068002803D050F8250000285F
:10304000C8D1BDE8F08100002DE9FF4F95B09B4647
:103050008946064600250FE2252877D10024274619
:10306000F84A0121059400E0044316F8013F203B93
:1030700001FA03F01042F7D130782A2811D06FF00E
:103080002F033078A0F13002092A16D8059A44F0AF
:10309000020402EB820203EB42021044761C05900C
:1030A000EFE759F8042B0592002A03DA504244F462
:1030B0000054059044F00204761C30782E2816D176
:1030C00016F8010F44F004042A280DD06FF02F02E7
:1030D0003078A0F13003092B09D807EB870302EB06
:1030E0004303C718761CF3E759F8047B761C307845
:1030F0006C280FD006DC4C2817D068280DD06A2821
:1031000014D104E0742810D07A280FD10DE044F4D3
:1031100000140AE044F4801401E044F4401472788E
:10312000824202D104F58014761C761C3078662821
:103130000BD013DC582877D009DC002875D045283F
:10314000F6D04628F4D047281AD19DE118E063282C
:1031500035D0642879D0652812D195E1702873D0D4
:1031600008DC6728F1D069286FD06E280DD06F2851
:1031700006D1B5E073282CD0752875D0782874D086
:103180005A46179990476D1C75E1C4F30250022806
:1031900009D003280DD0D9F8001004280DD00D60F7
:1031A00009F1040967E1D9F80010EA17C1E90052F2
:1031B000F6E7D9F800100D80F2E70D70F0E719F886
:1031C000041B8DF8001000208DF80100EA46012054
:1031D00003E059F804AB4FF0FF3061074FF00001F6
:1031E00002D40DE008F101018846B9420FDA8045AA
:1031F000F8DB1AF808100029F4D108E008F1010101
:1032000088468142FADB1AF808100029F6D10598A1
:103210005B46A0EB080721463846179A00F094FA5F
:10322000284400EB080507E04DE029E10DE01AF81D
:10323000010B5A4617999047B8F10108F7D25B463F
:1032400021463846179A13E142E00A220092C4F35D
:1032500002524FF0000A022A08D059F804CB032A80
:103260004FEAEC710AD00DE029E02AE009F10701EC
:1032700021F00702F2E802C1914609E00FFA8CFC46
:103280004FEAEC71042A03D14FFA8CFC4FEAEC713F
:10329000002907DA0A460021DCF1000C61EB02018B
:1032A0002D2202E0220504D52B228DF804200122D4
:1032B00003E0E20701D02022F7E7904659E00A2117
:1032C00002E010220DE010214FF0000A00910BE007
:1032D00010224FF0000A44F004040827009203E093
:1032E00008224FF0000A0092C4F30252022A05D0CD
:1032F00059F804CB0021032A08D009E009F107019D
:1033000021F00702F2E802C1914605E01FFA8CFCA9
:10331000042A01D10CF0FF0C4FF00008220728D539
:10332000702806D0009B83F0100353EA0A0305D0EF
:103330000EE040228DF80420012208E05CEA010240
:1033400006D030228DF804208DF805000222904628
:10335000009B83F0080353EA0A030AD15CEA0102E6
:1033600001D1620705D530228DF804204FF0010805
:103370007F1E582804D034A003900EA802900DE0C0
:1033800036A0F9E753466046009AFCF721FF8446D1
:103390000398825C0298401E029002705CEA010071
:1033A000F0D1029806A9081A00F1200A600702D598
:1033B00024F4803400E00127574502DDA7EB0A0022
:1033C00000E0002000EB0A01009005984144401AFB
:1033D0000590E00306D45B462146179A059800F055
:1033E000B3F90544002706E001A85A46C05D1799C5
:1033F00090476D1C7F1C4745F6DBE0030CD55B4610
:103400002146179A059800F09FF9054404E0302002
:103410005A46179990476D1C0099481E0090002944
:10342000F5DC08E0029802995A460078491C02919E
:10343000179990476D1CBAF10001AAF1010AF1DC5D
:1034400065E1000009280100303132333435363768
:1034500038396162636465660000000030313233E0
:103460003435363738394142434445460000000080
:1034700000F058F90544761C307800287FF4ECAD54
:1034800019B02846BDE8F08F620700D4062709F17D
:10349000070222F0070CFCE80223E14603F0004893
:1034A0005FEA080C02D00FF2702C0DE05FEA045CBA
:1034B00002D50FF2682C07E05FEAC47C02D00FF25D
:1034C000602C01E0AFF2700C4FF0FF3823F00043A6
:1034D000CDF850C065280CD006DC452809D0462818
:1034E0001DD047283DD13DE0662818D067287ED101
:1034F00038E00021112F01DB112000E0781CCDE91C
:10350000000106A90EA8FFF7B7F9DDE90F010E9A31
:1035100003910021009207F1010A04914DE04FF060
:1035200000400097CDE9011006A90EA8FFF7A4F905
:10353000DDE90F0203920E9B11990022DDF80CA029
:103540000093049211B9791C00EB010AB7EB0A0051
:1035500004D4C0F1FF3007F1010A0490AAEB070080
:10356000019044E0012F00DA01270021112F01DD35
:10357000112000E03846CDE9000106A90EA8FFF7AA
:103580007BF9DDE90F010E9A03910021049100926D
:10359000BA4621070CD40399514500DA8A46BAF19C
:1035A000010F05DD009AAAF10101515C302908D014
:1035B000B84202DA10F1040F06DA0121CDE9011058
:1035C00015E0AAF10101E9E7002805DC04990144AE
:1035D0000491AAEB000102E0411C514500DD8A463E
:1035E0000499401A401C01904FF0004002902007BF
:1035F00004D40198504501DBCDF8048000208DF8FB
:103600004F0002980DF14F07B0F1004F25D02B204D
:103610000E9002984FF0020800280CDA4042029007
:103620002D200E9007E00A210298FDF712F83031A4
:10363000029007F8011DB8F10001A8F10108F2DCC1
:1036400002980028EFD1791E0E980870307800F0AB
:10365000200040F0450007F8020D12A8C01B00F141
:1036600007081498007800B1012000EB0A010198C6
:1036700001EBE07105984144401A401E0590E003BB
:1036800006D45B462146179A059800F05DF805447C
:103690001498007818B15A46179990476D1CE003AA
:1036A00024D55B462146179A059800F04DF805444D
:1036B0001CE00498002807DBDDE90301884203DDF4
:1036C0000098405C179901E0179930205A469047BE
:1036D000049805F10105401C04900198401E0190DA
:1036E00004D12E205A46179990476D1CBAF100015B
:1036F000AAF1010ADDDC05E017F8010B5A4617991B
:1037000090476D1CB8F10001A8F10108F4DC5B469C
:103710002146179A0598ABE62D0000002B0000000B
:10372000200000002DE9F041044600251E46174602
:10373000880404D405E039462020B0476D1C641E7F
:10374000F9D52846BDE8F0812DE9F0410446002571
:103750001E469046C80301D5302700E02027880484
:1037600004D505E041463846B0476D1C641EF9D5C6
:103770002846BDE8F08159B1C0F3C6125143C91DB6
:1037800021F00701C0F34150C140C91DC80870476E
:103790000020704730B54021C0F34342022A19D0BF
:1037A0003A4A20F07E439C1A4D01934263D028DCB4
:1037B000374AA3EB020493425DD018DC402B5BD068
:1037C000403BB3F5802350D0802B3DD0B3F5806FC4
:1037D00052D134E0C0F3C051C905C0F3C61241EA6A
:1037E000C21100F07F02114341F4802144E0A4F5AE
:1037F0004074F93C26D00F2C3AD0AC423CD125493C
:103800003AE0254BE21A9C4229D00CDC234AA2184C
:1038100013D0B2F5F83F1FD0214BD2181AD0B2F511
:10382000607F29D112E0A2F54072F93A10D00F2A38
:1038300018D0AA4220D11B491EE01B491CE01449A4
:10384000C91F19E0194917E0194915E0194913E092
:10385000194911E019490FE0184980390CE0154960
:10386000C91D09E014490F3106E01149803903E010
:103870000E490F3100E0114600F080420A4300F08B
:103880000051114300F00060084330BD40040600C1
:10389000470404004010040007007E0000F483FF8A
:1038A000800FFEFF4010840040108200400804009A
:1038B000C00004004004840040088400C00084006C
:1038C00070B514460D46064600F00CF840B170681D
:1038D000C5EBC50110EB810002D04460012070BD32
:1038E000002070BD28B1416819B1408808B101209D
:1038F000704700207047000010B502002AD0164B18
:103900001068B3EBC01F03D0144BB3EBC01F01D141
:10391000012000E0002008429069406802D01F307A
:1039200020F01F005369D9B2012900D000211C0AE0
:1039300007E0012907D0936953F821305843491C07
:103940001AB1234602E00123F8E700238B42F0DCA2
:10395000002800DC002010BD006000420060000272
:1039600008B509A10968009148B101789DF80020C7
:10397000914204D104226946FCF77FFC08B1002083
:1039800008BD012008BD0000038404842DE9F04136
:10399000066C816B04460025C163CEB1D9B101200C
:1039A000626CB0470CE00220626CB047E06BFEF73F
:1039B000CDFE07460320626CE16BB0476D1CE763E8
:1039C000E16B0029EFD106E0FEF7C0FE6D1CE0635D
:1039D000E06B0028F8D12846BDE8F08103460020BE
:1039E000996B002908D0CB600A69401C8A4203D039
:1039F000002A01D01146F6E770472DE9F041846BAB
:103A0000002594B1012600272079C00707D0216A3C
:103A1000204611B18847304600E038460544206909
:103A2000A04202D008B10446EEE72846BDE8F08186
:103A30001CB500230522CDE900230123014A00F033
:103A4000B3F81CBDA40400201FB500280CD0074902
:103A5000D1E90023CDE90023D1E90221CDE90221FA
:103A60006A4602A900F034F804B010BDA44800086A
:103A700000F0E8B82DE9F0410D46064600F0F0F8F8
:103A8000041E0DD0294600F05FFE07462946204659
:103A900000F02AFE00EA0704304600F06DF92040ED
:103AA000BDE8F08110B90248024A026000F05AB83D
:103AB000A40400200001C0A110B90248024A02601B
:103AC00000F0B2B9A40400200001C0A100F07CB94C
:103AD00010B570B169B162B1074C0460D1E9004121
:103AE000C0E90141D2E90012C0E9031201231846DE
:103AF00010BD002010BD0000DECAFAA1016810B19F
:103B0000024A8A4300D00020704700000001C0A193
:103B100030B44AB140B139B1074C1368A34206D161
:103B200030BC0C32FFF7CAB830BC0020704730BC44
:103B30001C32FFF79BB80000DECAFAA130B44AB1CC
:103B400040B139B1064C1368A34206D130BC121DF6
:103B5000FFF7B4B830BC0020704730BCFFF786B820
:103B6000DECAFAA1F8B50E46FFF7C8FF04000AD076
:103B700000270097208E00B1606B6946FEF7F0FDCC
:103B8000050006D00BE01022114600F047F9002096
:103B9000F8BD18221121204600F040F9009706B127
:103BA00035800098F8BD00002DE9F04F89B0050080
:103BB000DDE912104FF0000A564663F30706CDE91F
:103BC000011361F30F261D4F9146544660F31746CB
:103BD000834618D0C5F8009000F063F9B8B1B84634
:103BE000BF8AC6F30721F0B2002200F04EF9064664
:103BF000C7F30721F8B2002200F047F9864208D047
:103C0000D8F804400EE0F86909B0BDE8F08F3C68D0
:103C100008E00BA0006800906846FFF7A1FE18B905
:103C2000D8F80840C5F800A0DDE901105A4600F0B8
:103C30002CF9C9F808002046E6E70000084D000806
:103C40000384048410B5FFF759FF20B1BDE810408C
:103C50000C3000F020B90148806910BD084D000803
:103C60002DE9F04F91B00C46FFF748FF050013D047
:103C7000B4B13DA12068FFF743F806004FF0000BF8
:103C800011D020680190D4E90301CDE90401D4E901
:103C90000101CDE9020143E0002011B0BDE8F08F41
:103CA000112210215CE001212046D4F804A0FFF786
:103CB00023FE804604F11C00D4F8209001211090CE
:103CC000FFF71AFE07461422294907A8FCF7B1FAA4
:103CD0000120B8F1000F02D0ADF8220002E0ADF8EB
:103CE00022B0002409941FB1ADF82A00109802E018
:103CF000ADF82AB000200B90B9F1000F02D10FB13E
:103D0000132206E0BAF1000F05D1B8F1000F02D07E
:103D10001222102123E0142207A901A8FCF789FA36
:103D200014492868884212D186F00102144602A97B
:103D300005F12000FEF774FF68B1224604A905F1E1
:103D40002800FEF76DFF40B12846FFF747FE03202D
:103D500028612846A1E7122200E0132216212846F6
:103D600000F05CF898E70000696E697400000000DC
:103D70005C4D00080001C0A170B5FFF7BFFE002830
:103D800007D0017C890705D41022112100F046F8E4
:103D9000002070BD0B4A0168914211D10546FFF722
:103DA0002CFE286C60B1AC6B54B1D5E910322146C1
:103DB000002098472069A04202D008B10446F4E7E9
:103DC000012070BD0001C0A170B513460D46FFF77C
:103DD00095FE04461A462946FEF79CFF00281CD093
:103DE000208E08B1656B00E00025012802D9666BC2
:103DF0000C360DE000260BE02846FFF7B2F820460F
:103E0000FFF7C4FD3046FFF7E0F8608B401C60838D
:103E1000608B218B8842EFD380B270BD002802D026
:103E20000C3000F040B87047F8B50E46FFF766FE5C
:103E3000040007D000270097208E012808D9606B66
:103E40000C3006E010221146FFF7E8FF0020F8BD15
:103E500000206946FEF784FC050005D118221121D7
:103E60002046FFF7DBFF009706B135800098F8BDCC
:103E700002460068010A012004E05368491E53F815
:103E8000213058430029F8D17047000640EA01402C
:103E900040EA022070470022016802700260084672
:103EA000704701207047037813F0FF0F01D0002006
:103EB00070470170016862F31F21016001207047A3
:103EC0002DE9F047806988B0018809B1426800E0B7
:103ED0000022526832B109B1426800E00022526803
:103EE000146800E00024012902D942680C3200E085
:103EF000002252684AB1012902D942680C3200E01E
:103F000000225268D2F8008001E04FF00008022938
:103F100002D94268183200E00022526842B10229F8
:103F200002D94268183200E000225268176800E0A7
:103F3000002702290BD9426812F1180F07D032F876
:103F4000183F012B03D9526812B1526800E00022D9
:103F5000E368D8F80CC003295E68DCE90153DCF89B
:103F60000CC003FB0CF3D7F818C0DCF8007027F086
:103F70007E4A02D94768243700E000277F685FB196
:103F8000032902D94068243000E00020406800681E
:103F900010B18069876800E00027D8F81800A1698F
:103FA0008068896812B19269946800E00024DCE9B5
:103FB000022CDFF85080E1461AEB080C10D0BCF55B
:103FC0009C0F15D0BCF5DC0F07D10097CDE903534A
:103FD000CDE901464B4600F063F808B0BDE8F08734
:103FE0008DE85700CDE90553684600F00DF8F4E779
:103FF0000097CDE90353CDE901464B4600F0A6F802
:10400000EBE70000C0EF7DFF2DE9F04F04462DEDFA
:10401000028B81B0D0E9005AD4E90501484305EB91
:10402000800934E060692E4605EB80089FED1B8A0D
:10403000D4F810B0A7680DE08DED008A5B465246BB
:1040400039466846FEF7CAF99DED000A07EB8B0773
:10405000A6EC010A4645EFD3E06890B100200DE0E0
:10406000E16801EB800191ED000A05EB8001401C45
:10407000D1ED000A30EE200A81ED000A616981422B
:10408000EED8216960690AEB810A05EB80054D4590
:10409000C8D301B0BDEC028BBDE8F08F000000007A
:1040A0002DE9FF4F04462DED028B83B08B46DDE9F1
:1040B0001550DDE9128A684304EB8006DDF8509064
:1040C0005FEA080005D040224146184600F08AFB0E
:1040D00033E0984631E000BF04EB85079FED1A8A74
:1040E00007990DE08DED018A5B46424601A8CDF8A7
:1040F0000090FEF78BFC9DED010A0146A4EC010A3D
:10410000BC42EFD30BEB890BBAF1000F15D0A4EB37
:10411000850100200DE000BF01EB80020AEB800367
:1041200092ED000AD3ED000A401C30EE200A82ED29
:10413000000AA842F0D301EB8504B442CCD303B00B
:10414000BDEC028BBDE8FF8F000000002DE9FF4FA2
:1041500004462DED028B83B08B46DDE91550DDE979
:10416000128A684304EB8006DDF850905FEA08008D
:1041700006D04FF480624146184600F033FB32E02F
:10418000984630E004EB85079FED1A8A07990DE009
:104190008DED018A5B46424601A8CDF80090FEF7FE
:1041A000CBFC9DED010A0146A4EC010ABC42EFD311
:1041B0000BEB890BBAF1000F15D0A4EB85010020A1
:1041C0000DE000BF01EB80020AEB800392ED000AD4
:1041D000D3ED000A401C30EE200A82ED000AA8420E
:1041E000F0D301EB8504B442CCD303B0BDEC028B19
:1041F000BDE8FF8F00000000D3ED021A93ED000A26
:1042000093ED011AF5EEC01A01EB8203F1EE10FAFC
:1042100000EB82002AD2B5EEC01AF1EE10FA11D0EE
:10422000001F1B1F8B4220D3D3ED000AF4EEC00AFF
:10423000F1EE10FA03D870EEC00A60EE810AC0ED0C
:10424000000AEDE79FED161A0BE000BFD3ED000A60
:10425000F4EEC00AF1EE10FA01D8F0EE410AC0ED1A
:10426000000A001F1B1F8B42F0D27047001F1B1F4C
:104270008B42FAD3D3ED000AF4EEE10AF1EE10FA24
:1042800009D8F4EEC00AF1EE10FA06D870EEC00AB2
:1042900060EE810A01E0F0EE610AC0ED000AE5E798
:1042A000000000002DE9FC5FB2FBF3F20C9D82469A
:1042B000B2FBF5FB03FB05F0CDE9000589461C4682
:1042C0004FF0000815E04E465546002708E023460B
:1042D00031462846019A00F011F82D1D361D7F1C2D
:1042E000A742F4D3009808F1010809EB80090AEB12
:1042F000800AD845E7D3BDE8FC9F00002DE9F047D0
:1043000080462DED028B1E4615460F4691ED008A24
:10431000DFED228A01200DE000FB06F107EB8101B1
:1043200091ED000AB4EEC80AF1EE10FA01D3B0EE36
:10433000408A401CA842EFD3002410E004FB06F999
:1043400007EB890090ED000A30EE480AFEF7E0F82E
:1043500008EB890070EE288A80ED000A641CAC42EC
:10436000ECD3F5EEC08AF1EE10FA12D0F7EE000AA7
:10437000002080EEA80A0AE000FB06F108EB8101AC
:10438000401CD1ED000A60EE800AC1ED000AA8428F
:10439000F2D3BDEC028BBDE8F08700000000000006
:1043A00070B505468069018809B1426800E00022C5
:1043B000526832B109B1426800E0002252681468C4
:1043C00000E00024012902D942680C3200E00022FA
:1043D000526842B1012902D940680C3000E0002047
:1043E0004068066800E00026E86988B14068012856
:1043F00004F108002CD0FFF73BFD0246E869836812
:10440000A0698168B0698068BDE87040FFF7F4BEBC
:10441000B0698668A069856804F10800FFF728FD87
:1044200005EB800106EB8000DFED100A0BE000BF1A
:1044300091ED000AB5EEC00AF1EE10FA01D8B0EE27
:10444000600A80ED000A001F091FA942F0D270BD6A
:10445000FFF70EFD0246E8698368A0698168B069CC
:104460008068BDE87040FEF7EBB900000000000076
:10447000F8B505468069018809B1426800E000226C
:10448000526832B109B1426800E0002252681468F3
:1044900000E00024012902D942680C3200E0002229
:1044A000526842B1012902D940680C3000E0002076
:1044B0004068066800E0002604F10800FFF7D8FC19
:1044C0000246B5F92000A168B0EB112F03DAE168CC
:1044D00051F8201000E001212369B0EB132F03DA1B
:1044E000636953F8200000E0002083080091A06970
:1044F0008168B0698068FFF7D5FEF8BD13B54FF04D
:10450000FF33012269460248FDF701FD00981CBDFA
:10451000900800200146C0684A698969C068D2686D
:1045200009685043044A1140A1F58022C03A01D1E4
:10453000C01DC00870470000FFFF7F0186B0FCF778
:1045400095FFFDF76FFDFDF735FDFDF749FDFCF724
:104550005DFD40A0FDF70EFF002432214148FBF72E
:1045600081FEDFF800A1DFF8FC804FF0FF3B0AF18D
:10457000340A5B46012204A93B48FDF76FFC002882
:10458000F7D19DF810000A2807D00D2805D0312C4E
:104590005AD208F80400641CEBE7002CE9DD002186
:1045A000304808F804104030011FCDE9001054468F
:1045B000A0F10C02231D2DA14038FBF76BFE04284F
:1045C00042D16068FCF732F805460E462068FCF7D9
:1045D0002DF841EC100BCDE9005653EC102B26A022
:1045E000FDF7C8FE1F494431A1F11000FCF796FD0C
:1045F000DFF87090059009F14409D9F80800FCF73C
:1046000015F806460F46D9F80400FCF70FF80446E3
:104610000D46D9F80000FCF709F88DE8F00041ECF0
:10462000100B1EA053EC102BFDF7A4FE059820B133
:10463000012804D0022807D103E021A002E023A032
:1046400000E026A0FDF796FE002432210548FBF786
:1046500009FE8EE7497269732052656164790D0A1B
:1046600000000000E00700209008002025662C25AF
:10467000662C25662C2566003E3E20737363616EB2
:1046800066204F4B2120446174613A20252E32660A
:104690002C20252E32660D0A000000005261772082
:1046A0004F75747075743A205B252E34662C202566
:1046B0002E34662C20252E34665D0D0A0000000085
:1046C0005365746F73610D0A0000000056657273C4
:1046D00069636F6C6F720D0A0000000056697267A3
:1046E000696E6963610D0A0010B504460A4601212E
:1046F0001448FFF70DFAF0B11248124A0068083268
:1047000000F110019160D160103210319160D160E0
:1047100010329160D16010329060D06010329160A0
:10472000D16002F110018860C86010310C308860DF
:10473000C860012010BD132230212046FFF76EFB18
:10474000002010BDCC03002010B504460A4601210C
:104750002348FFF7F3F9D0B32149743101F1100276
:10476000086840F0804008601D4800688860C860A4
:10477000116841F08041116000F580719160D16055
:104780001032116841F08041116000F5A071916014
:10479000D1601032116841F08041116000F5507114
:1047A0009160D1601032116841F08041116000F5D4
:1047B00058719160D16002F1100100F570700A68C3
:1047C000886042F080420A60C860012010BDFFE7A7
:1047D000122230212046FFF721FB0020F6E70000DF
:1047E000D0030020F0B588420ED0002A0CD08318E8
:1047F000814210D999420ED2114403E013F8012DE1
:1048000001F8012D8342F9D8F0BD00BF10F8013B3B
:1048100001F8013B521E8B0701D0002AF6D117097F
:1048200011E000BF50F8046B7F1E50F8045B50F895
:10483000084B50F8043C41F8046B41F8045B41F824
:10484000084B41F8043C002FECD1C2F3810304E093
:1048500050F8044B41F8044B5B1E002BF8D102F0DA
:10486000030204E010F8013B01F8013B521E002A4C
:10487000F8D1F0BD04000000B001002004000000E9
:10488000F4010020040000003402002004000000B5
:104890007802002004000000B8020020040000009C
:1048A000FC0200200000010034070020000001008D
:1048B000500700200100000060000000010000001F
:1048C000010000004004040000000000000000009F
:1048D0000000000060000000010400000000000073
:1048E00001000000CC0300000100000001000000F6
:1048F0004004044000000000000000000000000030
:10490000CC030000010400000000000000000000D3
:104910000000000000000000000000000000000097
:104920008C61ABBEE8A18F3EBE20DBBE4DAB03BFAA
:104930008A24AFBE095CCABBE93A7A3F3E592D3F93
:104940008C5DD53D04D1ABBE6FB7163F8CB1593FDE
:10495000E07324BE4049313E751CB83D2CC7AABD4A
:104960003F2810BFB60DAEBCFADA093D587943BFF7
:104970000A1C1BBFDFAE7F3CE463F3BEF58CAEBE0A
:104980004D1D07BFECB0813EA1D7B63DCAF8CCBEE5
:104990004CA4B6BE7363C8BE194B8DBED51DAEBE4A
:1049A00020EF4EBEC9E4023F28C543BF10AB07BF8E
:1049B000D9DC8C3E37EEFD3E56B0183F2A320D3F13
:1049C000D7A7A43E0DED043F32E023BF9DA495BDC3
:1049D000718A8CBC813212BFA3980D3FB78B3BBD4F
:1049E000FEA19EBEBBA5933E7C6D143F2AB8433FFB
:1049F0001E41A1BE53AB723D393DF3BDAB1FEABEB4
:104A0000D603BDBE4658ADBE8CEACEBEC29D4F3E5B
:104A100028FC123E86EA19BF1515CCBE8792803E4F
:104A200082BB123EEBDB82BE535175BE82BD6E3D32
:104A30008BCD5D3D9898443C42FB1E3F52E71A3CAB
:104A40001AE1713EA4E4913EFB75253F78A6003F34
:104A500060CE07BE40BB1EBC779B44BD52FCF33EFC
:104A60000A0FAE3E57365D3F3962033E374CFCBEFF
:104A70004986A4BE3B4EFABE1848F4BE2CE6F43E6E
:104A800032868B3E146E9A3E5F56DFBE51BFCE3EDD
:104A90006BD6A6BA4B0F9E3E2A2CF63E41C395BE5E
:104AA0003CC3443FFD6358BF2B45EABE345311BE9F
:104AB000297DAD3E661B723E8F1E433FB732ED3EF1
:104AC000D27D74BD31C47D3E62357F3FF688A43E01
:104AD000FD7547BE08F1233F839037BEC281073F73
:104AE000B04B88BE4D75ED3DCC84783E4022443EAF
:104AF000C5F4DCBE3053903E82DB973E0576AABEFD
:104B0000047EADBE69B607BE95A305BF492ADABECD
:104B1000CE4D29BE8AADCB3E83ECBD3EE2F7543E7E
:104B200087BB1FBF7718073F8C402F3F8A988EBEE8
:104B30004B670EBEF66BD63D133D1DBF7DA95DBD17
:104B40007F69FFBEBF0C4B3E4CE296BE7719E53E37
:104B5000D9290D3F380D80BD98B9733EE66DDA3E18
:104B600061F725BF6C32E5BE1984A2BED1263E3E58
:104B700071D622BE555ADDBEBA3A193FF5D545BEAB
:104B8000194F5B3D29C3A73D9E281A3F549B1C3FEC
:104B900036210ABF93F1F0BE48222E3DF0392F3F57
:104BA000275606BF949A00BDCD61803E1900D5BE40
:104BB00054B795BE2829A13E1F44FB3EF4E7CABE68
:104BC000A2B0D7BEF91E9ABD1187DF3ED44A2F3F4F
:104BD000A6A00F3E6DA0613ECA625CBEC503993EB1
:104BE00021E3868AE430B93E42CF14BF55EEACBC17
:104BF0001B2F17BDAB77833E4E96063D1792DEBD49
:104C0000CE04FBBDCFC4B43D0E37DCBECA0CD9BC4C
:104C100037F8AB3EF55AE9BA3CF54D374C17E4BED0
:104C2000E25BF03E70E7953D477F313F9CA364BE59
:104C300017C6853EB4503F3F0A98243E223EFD3DB4
:104C4000D14D2D3FF2BA19BFF53B423F1B0083BD4A
:104C50008CB28B3E254AD8BD98ADC83E295302BEC2
:104C600040FF54BE331BEA3E5186F9BD7BC32D3D48
:104C700078FBEE3EEABFCB3E097AD3BDD97528BE9C
:104C8000D35279BE65D7073FA19A20BE0D3C88BF9D
:104C9000D6E487BF075C84BF3CD3B33ED7FF5A3FFF
:104CA000A2265DBF7912723FA396E23DD0EC19BFF8
:104CB00040ED9E3F260C9C3E2B4D24BF8B688EBF43
:104CC0006B3F103F12FEF1BE9910A2BE04B0753FBB
:104CD000742915BF185090BDCAB320BF1F6FCE3EB8
:104CE000B1BC35BDCE58843E9C1969BE00000000A1
:104CF000000000000000000001020304060708098C
:104D00000000000001020304301000000110000048
:104D1000021000000A01000001020000010500006D
:104D20001010000010100000010000000000000042
:104D30000100000000000000010000000100000070
:104D4000400404000000000000000000000000001B
:104D5000000000000104000000000000DECAFAA10B
:104D60000000000000000000000000000000000043
:104D70000000803F0030983F0000B53F0040D73F23
:104D800000000000320A7E397F661E395B991F39A8
:104D90000000803FF037983FF304B53FFD44D73F14
:104DA000DDDDDDDDDCBBBBDDDDDDDDDDDDDDDDDD78
:104DB00098888888888888887777777777888888B8
:104DC0008555555666666666666666666668888850
:104DD0008333333222222222222222222228888D49
:104DE000004E00080000002088070000B40F0008F3
:104DF0009050000888070020500900003027000864
:104E000032013210290829045A04045A4004091EA8
:104E100020290CE9202910691129070A1108405A94
:104E20002004091E20294CE9202978114A0204296E
:104E3000140A1103405A0C04091E20295CE9202998
:104E4000785A60046914E940299869F86908A9202A
:104E500029A42904091EE0091EA013B4053C204022
:104E6000062B5129244BA00110290C5AA40C419A5D
:104E7000A80C5AAC0C1A243C29441AD0041A9804E1
:104E800069389AE0445AE40C32029AE8445AF00C29
:104E90001A60382948A9848B2402405A280C419A68
:104EA0002C0C5A300C1A083C29441A7C049A44846D
:104EB0009A64445A680C29849A6C445A740C1A0CEB
:104EC000382948A9849AA8409AAC349AB00C5AB4AC
:104ED0000C1AEC4029441A28048BF004389AE84450
:104EE0009AEC849AF0449AF8244BCC03082904D411
:104EF000400404391C1913132C032A20205A60285B
:104F000009122C391C19131A582C299C8113A40737
:104F10002B20880419189A40F01AD0141AB4045A95
:104F2000A05C1A84085A900C1A9C081AA80481AD37
:104F3000401082086E1910110A1D10100A1D081069
:104F400019DBA910DA0810110A1D40600A1D8060E3
:104F50000A1918701100081401C0A198A48CA41D8E
:104F6000DECAFAA12111133C032A20081A6808326C
:104F7000021AB4082BF806140115540101041B2071
:104F8000020819AC4C2054042C5A011C190D391C70
:104F90001A30083AE45C211958391C19EC391C1AEA
:104FA00050085A443819B0391C5A601C1A70085AF3
:104FB000741C190F391C5A801C1A90085A041C5A68
:104FC000051C5AA01C1AB0085A641C5A061C5AC068
:104FD0001C1AD0085A941C5A071C5AE01C1AF008D4
:104FE0005A241C6A08E05A01E019085A841C6A090C
:104FF000E0591C1A30085AD4E06A0AE0591C1A50C9
:10500000085AF41C6A0BE0591C1A70085A14546AA6
:105010000CE0591C1A90081A341C1B0C018AB1139D
:105020005C06142071442C087448A3299F211B049A
:1050300001CAD92413C13E1B087C24D40701051AD8
:10504000801C13A1435B0884403A04E5A15A9C3CB0
:105050003A8C3CD2025ABC3C7A943C297EA15AD864
:105060003C1A9C20291A5A60A069048BCC030CCBF3
:10507000400478392C19131314072A201C4B20499B
:1050800064413938191C1A241C69F482109324F4E1
:040000050800019955
:00000001FF
